{
  "_format": "hh-sol-artifact-1",
  "contractName": "RouletteGame",
  "sourceName": "contracts/RouletteGame.sol",
  "abi": [
    {
      "inputs": [],
      "stateMutability": "nonpayable",
      "type": "constructor"
    },
    {
      "inputs": [
        {
          "internalType": "address",
          "name": "player",
          "type": "address"
        }
      ],
      "name": "balanceOf",
      "outputs": [
        {
          "internalType": "uint256",
          "name": "",
          "type": "uint256"
        }
      ],
      "stateMutability": "view",
      "type": "function"
    },
    {
      "inputs": [
        {
          "internalType": "address",
          "name": "player",
          "type": "address"
        }
      ],
      "name": "getInitAmount",
      "outputs": [
        {
          "internalType": "bool",
          "name": "",
          "type": "bool"
        }
      ],
      "stateMutability": "nonpayable",
      "type": "function"
    },
    {
      "inputs": [
        {
          "internalType": "address payable",
          "name": "player",
          "type": "address"
        },
        {
          "internalType": "uint256",
          "name": "betAmount",
          "type": "uint256"
        },
        {
          "internalType": "uint8",
          "name": "betNumber",
          "type": "uint8"
        }
      ],
      "name": "makeBet",
      "outputs": [],
      "stateMutability": "nonpayable",
      "type": "function"
    },
    {
      "inputs": [],
      "name": "owner",
      "outputs": [
        {
          "internalType": "address",
          "name": "",
          "type": "address"
        }
      ],
      "stateMutability": "view",
      "type": "function"
    },
    {
      "inputs": [
        {
          "internalType": "address",
          "name": "",
          "type": "address"
        }
      ],
      "name": "playersBetInfo",
      "outputs": [
        {
          "internalType": "address",
          "name": "player",
          "type": "address"
        },
        {
          "internalType": "uint256",
          "name": "betAmount",
          "type": "uint256"
        },
        {
          "internalType": "uint8",
          "name": "betNumber",
          "type": "uint8"
        }
      ],
      "stateMutability": "view",
      "type": "function"
    },
    {
      "inputs": [
        {
          "internalType": "address",
          "name": "",
          "type": "address"
        }
      ],
      "name": "playersBlance",
      "outputs": [
        {
          "internalType": "uint256",
          "name": "",
          "type": "uint256"
        }
      ],
      "stateMutability": "view",
      "type": "function"
    },
    {
      "inputs": [
        {
          "internalType": "address",
          "name": "",
          "type": "address"
        }
      ],
      "name": "playersHasGetInitAmount",
      "outputs": [
        {
          "internalType": "uint256",
          "name": "",
          "type": "uint256"
        }
      ],
      "stateMutability": "view",
      "type": "function"
    },
    {
      "inputs": [],
      "name": "prizePoolBalance",
      "outputs": [
        {
          "internalType": "uint256",
          "name": "",
          "type": "uint256"
        }
      ],
      "stateMutability": "view",
      "type": "function"
    },
    {
      "inputs": [
        {
          "internalType": "uint256",
          "name": "number",
          "type": "uint256"
        }
      ],
      "name": "random",
      "outputs": [
        {
          "internalType": "uint256",
          "name": "",
          "type": "uint256"
        }
      ],
      "stateMutability": "view",
      "type": "function"
    }
  ],
  "bytecode": "0x60806040523480156200001157600080fd5b5033600660006101000a81548173ffffffffffffffffffffffffffffffffffffffff021916908373ffffffffffffffffffffffffffffffffffffffff160217905550620186a0600781905550600b60008190555060018081905550600c60028190555060018054600254620000879190620000d8565b62000093919062000113565b6003819055506200014e565b6000819050919050565b7f4e487b7100000000000000000000000000000000000000000000000000000000600052601160045260246000fd5b6000620000e5826200009f565b9150620000f2836200009f565b92508282039050818111156200010d576200010c620000a9565b5b92915050565b600062000120826200009f565b91506200012d836200009f565b9250828201905080821115620001485762000147620000a9565b5b92915050565b610f15806200015e6000396000f3fe608060405234801561001057600080fd5b50600436106100935760003560e01c80638da5cb5b116100665780638da5cb5b1461015a578063a0b40f3b14610178578063a46934df146101a8578063b863bd37146101c6578063c0f91f69146101f657610093565b8063145fd3b2146100985780631a5a06ab146100ca5780636edec0c1146100fa57806370a082311461012a575b600080fd5b6100b260048036038101906100ad91906108c9565b610212565b6040516100c19392919061093a565b60405180910390f35b6100e460048036038101906100df91906108c9565b610269565b6040516100f1919061098c565b60405180910390f35b610114600480360381019061010f91906108c9565b61034f565b60405161012191906109a7565b60405180910390f35b610144600480360381019061013f91906108c9565b610367565b60405161015191906109a7565b60405180910390f35b6101626103b0565b60405161016f91906109c2565b60405180910390f35b610192600480360381019061018d91906108c9565b6103d6565b60405161019f91906109a7565b60405180910390f35b6101b06103ee565b6040516101bd91906109a7565b60405180910390f35b6101e060048036038101906101db9190610a09565b6103f4565b6040516101ed91906109a7565b60405180910390f35b610210600480360381019061020b9190610aa0565b610436565b005b60046020528060005260406000206000915090508060000160009054906101000a900473ffffffffffffffffffffffffffffffffffffffff16908060010154908060020160009054906101000a900460ff16905083565b600080600560008473ffffffffffffffffffffffffffffffffffffffff1673ffffffffffffffffffffffffffffffffffffffff1681526020019081526020016000205411156102bb576000905061034a565b6064600860008473ffffffffffffffffffffffffffffffffffffffff1673ffffffffffffffffffffffffffffffffffffffff168152602001908152602001600020819055506001600560008473ffffffffffffffffffffffffffffffffffffffff1673ffffffffffffffffffffffffffffffffffffffff16815260200190815260200160002081905550600190505b919050565b60086020528060005260406000206000915090505481565b6000600860008373ffffffffffffffffffffffffffffffffffffffff1673ffffffffffffffffffffffffffffffffffffffff168152602001908152602001600020549050919050565b600660009054906101000a900473ffffffffffffffffffffffffffffffffffffffff1681565b60056020528060005260406000206000915090505481565b60075481565b60008142443360405160200161040c93929190610b5c565b6040516020818303038152906040528051906020012060001c61042f9190610bc8565b9050919050565b6000600860008573ffffffffffffffffffffffffffffffffffffffff1673ffffffffffffffffffffffffffffffffffffffff168152602001908152602001600020549050600073ffffffffffffffffffffffffffffffffffffffff168473ffffffffffffffffffffffffffffffffffffffff16036104e9576040517f08c379a00000000000000000000000000000000000000000000000000000000081526004016104e090610c56565b60405180910390fd5b6000831161052c576040517f08c379a000000000000000000000000000000000000000000000000000000000815260040161052390610ce8565b60405180910390fd5b8083111561056f576040517f08c379a000000000000000000000000000000000000000000000000000000000815260040161056690610d7a565b60405180910390fd5b60008260ff1610158015610587575060248260ff1611155b6105c6576040517f08c379a00000000000000000000000000000000000000000000000000000000081526004016105bd90610de6565b60405180910390fd5b600060405180606001604052808673ffffffffffffffffffffffffffffffffffffffff1681526020018581526020018460ff16815250905080600460008773ffffffffffffffffffffffffffffffffffffffff1673ffffffffffffffffffffffffffffffffffffffff16815260200190815260200160002060008201518160000160006101000a81548173ffffffffffffffffffffffffffffffffffffffff021916908373ffffffffffffffffffffffffffffffffffffffff1602179055506020820151816001015560408201518160020160006101000a81548160ff021916908360ff16021790555090505060006106cc60016003546106c79190610e35565b6103f4565b6001546106d99190610e69565b90506000818560ff160361077057600054866106f59190610e9d565b9050600086826107059190610e35565b9050806007546107159190610e35565b60078190555080856107279190610e69565b600860008a73ffffffffffffffffffffffffffffffffffffffff1673ffffffffffffffffffffffffffffffffffffffff16815260200190815260200160002081905550506107d8565b60009050856007546107829190610e69565b60078190555085846107949190610e35565b600860008973ffffffffffffffffffffffffffffffffffffffff1673ffffffffffffffffffffffffffffffffffffffff168152602001908152602001600020819055505b600460008873ffffffffffffffffffffffffffffffffffffffff1673ffffffffffffffffffffffffffffffffffffffff168152602001908152602001600020600080820160006101000a81549073ffffffffffffffffffffffffffffffffffffffff021916905560018201600090556002820160006101000a81549060ff0219169055505050505050505050565b600080fd5b600073ffffffffffffffffffffffffffffffffffffffff82169050919050565b60006108968261086b565b9050919050565b6108a68161088b565b81146108b157600080fd5b50565b6000813590506108c38161089d565b92915050565b6000602082840312156108df576108de610866565b5b60006108ed848285016108b4565b91505092915050565b6108ff8161088b565b82525050565b6000819050919050565b61091881610905565b82525050565b600060ff82169050919050565b6109348161091e565b82525050565b600060608201905061094f60008301866108f6565b61095c602083018561090f565b610969604083018461092b565b949350505050565b60008115159050919050565b61098681610971565b82525050565b60006020820190506109a1600083018461097d565b92915050565b60006020820190506109bc600083018461090f565b92915050565b60006020820190506109d760008301846108f6565b92915050565b6109e681610905565b81146109f157600080fd5b50565b600081359050610a03816109dd565b92915050565b600060208284031215610a1f57610a1e610866565b5b6000610a2d848285016109f4565b91505092915050565b6000610a418261086b565b9050919050565b610a5181610a36565b8114610a5c57600080fd5b50565b600081359050610a6e81610a48565b92915050565b610a7d8161091e565b8114610a8857600080fd5b50565b600081359050610a9a81610a74565b92915050565b600080600060608486031215610ab957610ab8610866565b5b6000610ac786828701610a5f565b9350506020610ad8868287016109f4565b9250506040610ae986828701610a8b565b9150509250925092565b6000819050919050565b610b0e610b0982610905565b610af3565b82525050565b60008160601b9050919050565b6000610b2c82610b14565b9050919050565b6000610b3e82610b21565b9050919050565b610b56610b518261088b565b610b33565b82525050565b6000610b688286610afd565b602082019150610b788285610afd565b602082019150610b888284610b45565b601482019150819050949350505050565b7f4e487b7100000000000000000000000000000000000000000000000000000000600052601260045260246000fd5b6000610bd382610905565b9150610bde83610905565b925082610bee57610bed610b99565b5b828206905092915050565b600082825260208201905092915050565b7f706c61796572206973206e6f7420616464726573732030000000000000000000600082015250565b6000610c40601783610bf9565b9150610c4b82610c0a565b602082019050919050565b60006020820190508181036000830152610c6f81610c33565b9050919050565b7f626574416d6f756e74206973207a65726f20616e64206e6f74206c657373207460008201527f68616e20706c6179616d6f756e74000000000000000000000000000000000000602082015250565b6000610cd2602e83610bf9565b9150610cdd82610c76565b604082019050919050565b60006020820190508181036000830152610d0181610cc5565b9050919050565b7f626574416d6f756e74206973206c657373207468616e20706c6179657227732060008201527f62616c616e636500000000000000000000000000000000000000000000000000602082015250565b6000610d64602783610bf9565b9150610d6f82610d08565b604082019050919050565b60006020820190508181036000830152610d9381610d57565b9050919050565b7f6265744e756d6265722069732062657477656e6e203020616e64203336000000600082015250565b6000610dd0601d83610bf9565b9150610ddb82610d9a565b602082019050919050565b60006020820190508181036000830152610dff81610dc3565b9050919050565b7f4e487b7100000000000000000000000000000000000000000000000000000000600052601160045260246000fd5b6000610e4082610905565b9150610e4b83610905565b9250828203905081811115610e6357610e62610e06565b5b92915050565b6000610e7482610905565b9150610e7f83610905565b9250828201905080821115610e9757610e96610e06565b5b92915050565b6000610ea882610905565b9150610eb383610905565b9250828202610ec181610905565b91508282048414831517610ed857610ed7610e06565b5b509291505056fea2646970667358221220378b01fa954513687c641cda34306b253d2b0cf56a4578a8ede4e708599527d464736f6c63430008130033",
  "linkReferences": {},
  "deployedLinkReferences": {}
}